{
  "contractName": "InterestRatePrediction",
  "abi": [
    {
      "inputs": [
        {
          "internalType": "uint256",
          "name": "_deadline",
          "type": "uint256"
        },
        {
          "internalType": "uint256",
          "name": "_revealRateDate",
          "type": "uint256"
        }
      ],
      "stateMutability": "nonpayable",
      "type": "constructor"
    },
    {
      "anonymous": false,
      "inputs": [
        {
          "indexed": true,
          "internalType": "address",
          "name": "",
          "type": "address"
        }
      ],
      "name": "eventCancelPrediction",
      "type": "event"
    },
    {
      "anonymous": false,
      "inputs": [
        {
          "indexed": true,
          "internalType": "address",
          "name": "",
          "type": "address"
        }
      ],
      "name": "eventClaimReward",
      "type": "event"
    },
    {
      "anonymous": false,
      "inputs": [
        {
          "indexed": true,
          "internalType": "address",
          "name": "",
          "type": "address"
        },
        {
          "indexed": true,
          "internalType": "uint256",
          "name": "rateIndex",
          "type": "uint256"
        }
      ],
      "name": "eventPredict",
      "type": "event"
    },
    {
      "anonymous": false,
      "inputs": [
        {
          "indexed": true,
          "internalType": "address",
          "name": "",
          "type": "address"
        },
        {
          "indexed": true,
          "internalType": "uint256",
          "name": "rateIndex",
          "type": "uint256"
        }
      ],
      "name": "eventRevealRate",
      "type": "event"
    },
    {
      "inputs": [],
      "name": "actualRate",
      "outputs": [
        {
          "internalType": "uint256",
          "name": "",
          "type": "uint256"
        }
      ],
      "stateMutability": "view",
      "type": "function",
      "constant": true
    },
    {
      "inputs": [
        {
          "internalType": "address",
          "name": "",
          "type": "address"
        }
      ],
      "name": "betAmounts",
      "outputs": [
        {
          "internalType": "uint256",
          "name": "",
          "type": "uint256"
        }
      ],
      "stateMutability": "view",
      "type": "function",
      "constant": true
    },
    {
      "inputs": [],
      "name": "deadline",
      "outputs": [
        {
          "internalType": "uint256",
          "name": "",
          "type": "uint256"
        }
      ],
      "stateMutability": "view",
      "type": "function",
      "constant": true
    },
    {
      "inputs": [],
      "name": "owner",
      "outputs": [
        {
          "internalType": "address",
          "name": "",
          "type": "address"
        }
      ],
      "stateMutability": "view",
      "type": "function",
      "constant": true
    },
    {
      "inputs": [
        {
          "internalType": "uint256",
          "name": "",
          "type": "uint256"
        },
        {
          "internalType": "uint256",
          "name": "",
          "type": "uint256"
        }
      ],
      "name": "predictions",
      "outputs": [
        {
          "internalType": "address",
          "name": "",
          "type": "address"
        }
      ],
      "stateMutability": "view",
      "type": "function",
      "constant": true
    },
    {
      "inputs": [
        {
          "internalType": "uint256",
          "name": "",
          "type": "uint256"
        }
      ],
      "name": "rateOptions",
      "outputs": [
        {
          "internalType": "uint8",
          "name": "",
          "type": "uint8"
        }
      ],
      "stateMutability": "view",
      "type": "function",
      "constant": true
    },
    {
      "inputs": [],
      "name": "rateRevealed",
      "outputs": [
        {
          "internalType": "bool",
          "name": "",
          "type": "bool"
        }
      ],
      "stateMutability": "view",
      "type": "function",
      "constant": true
    },
    {
      "inputs": [],
      "name": "revealRateDate",
      "outputs": [
        {
          "internalType": "uint256",
          "name": "",
          "type": "uint256"
        }
      ],
      "stateMutability": "view",
      "type": "function",
      "constant": true
    },
    {
      "inputs": [
        {
          "internalType": "address",
          "name": "",
          "type": "address"
        }
      ],
      "name": "rewards",
      "outputs": [
        {
          "internalType": "uint256",
          "name": "",
          "type": "uint256"
        }
      ],
      "stateMutability": "view",
      "type": "function",
      "constant": true
    },
    {
      "inputs": [],
      "name": "totalAmount",
      "outputs": [
        {
          "internalType": "uint256",
          "name": "",
          "type": "uint256"
        }
      ],
      "stateMutability": "view",
      "type": "function",
      "constant": true
    },
    {
      "inputs": [],
      "name": "winnerCount",
      "outputs": [
        {
          "internalType": "uint256",
          "name": "",
          "type": "uint256"
        }
      ],
      "stateMutability": "view",
      "type": "function",
      "constant": true
    },
    {
      "inputs": [
        {
          "internalType": "uint256",
          "name": "rateIndex",
          "type": "uint256"
        }
      ],
      "name": "predict",
      "outputs": [],
      "stateMutability": "payable",
      "type": "function",
      "payable": true
    },
    {
      "inputs": [],
      "name": "cancelPrediction",
      "outputs": [],
      "stateMutability": "nonpayable",
      "type": "function"
    },
    {
      "inputs": [
        {
          "internalType": "uint256",
          "name": "rateIndex",
          "type": "uint256"
        }
      ],
      "name": "revealRate",
      "outputs": [],
      "stateMutability": "nonpayable",
      "type": "function"
    },
    {
      "inputs": [],
      "name": "getReward",
      "outputs": [
        {
          "internalType": "uint256",
          "name": "",
          "type": "uint256"
        }
      ],
      "stateMutability": "view",
      "type": "function",
      "constant": true
    },
    {
      "inputs": [],
      "name": "claimReward",
      "outputs": [],
      "stateMutability": "nonpayable",
      "type": "function"
    },
    {
      "inputs": [],
      "name": "getRollupInfo",
      "outputs": [
        {
          "internalType": "uint256",
          "name": "",
          "type": "uint256"
        },
        {
          "internalType": "uint256",
          "name": "",
          "type": "uint256"
        },
        {
          "internalType": "uint256",
          "name": "",
          "type": "uint256"
        },
        {
          "internalType": "uint256",
          "name": "",
          "type": "uint256"
        },
        {
          "internalType": "uint256",
          "name": "",
          "type": "uint256"
        },
        {
          "internalType": "uint256",
          "name": "",
          "type": "uint256"
        },
        {
          "internalType": "bool",
          "name": "",
          "type": "bool"
        }
      ],
      "stateMutability": "view",
      "type": "function",
      "constant": true
    }
  ],
  "bytecode": "0x60806040526040518060600160405280600060ff168152602001601960ff168152602001603260ff1681525060079060036200003d929190620000c7565b503480156200004b57600080fd5b50604051620025ea380380620025ea8339818101604052810190620000719190620001d4565b336000806101000a81548173ffffffffffffffffffffffffffffffffffffffff021916908373ffffffffffffffffffffffffffffffffffffffff160217905550816001819055508060028190555050506200021b565b82805482825590600052602060002090601f01602090048101928215620001625791602002820160005b838211156200013157835183826101000a81548160ff021916908360ff1602179055509260200192600101602081600001049283019260010302620000f1565b8015620001605782816101000a81549060ff021916905560010160208160000104928301926001030262000131565b505b50905062000171919062000175565b5090565b5b808211156200019057600081600090555060010162000176565b5090565b600080fd5b6000819050919050565b620001ae8162000199565b8114620001ba57600080fd5b50565b600081519050620001ce81620001a3565b92915050565b60008060408385031215620001ee57620001ed62000194565b5b6000620001fe85828601620001bd565b92505060206200021185828601620001bd565b9150509250929050565b6123bf806200022b6000396000f3fe6080604052600436106100fe5760003560e01c80635c52b56e11610095578063b88a802f11610064578063b88a802f1461031e578063c6e63f2114610335578063caa02e0814610360578063ebcfcf6b1461038b578063f5705be7146103c8576100fe565b80635c52b56e1461028857806385bac931146102b15780638b54f982146102c85780638da5cb5b146102f3576100fe565b806329dcb0cf116100d157806329dcb0cf146101e55780633d18b912146102105780633ffeacdf1461023b57806352ef348a1461026c576100fe565b8063025ae4e2146101035780630700037d146101405780631a39d8ef1461017d5780632636e1ae146101a8575b600080fd5b34801561010f57600080fd5b5061012a600480360381019061012591906117f9565b6103f3565b604051610137919061187a565b60405180910390f35b34801561014c57600080fd5b50610167600480360381019061016291906118c1565b610441565b60405161017491906118fd565b60405180910390f35b34801561018957600080fd5b50610192610459565b60405161019f91906118fd565b60405180910390f35b3480156101b457600080fd5b506101cf60048036038101906101ca9190611918565b61045f565b6040516101dc9190611961565b60405180910390f35b3480156101f157600080fd5b506101fa610493565b60405161020791906118fd565b60405180910390f35b34801561021c57600080fd5b50610225610499565b60405161023291906118fd565b60405180910390f35b34801561024757600080fd5b506102506107c8565b6040516102639796959493929190611997565b60405180910390f35b61028660048036038101906102819190611918565b610816565b005b34801561029457600080fd5b506102af60048036038101906102aa9190611918565b610a3b565b005b3480156102bd57600080fd5b506102c6610ca6565b005b3480156102d457600080fd5b506102dd6110ed565b6040516102ea9190611a06565b60405180910390f35b3480156102ff57600080fd5b50610308611100565b604051610315919061187a565b60405180910390f35b34801561032a57600080fd5b50610333611124565b005b34801561034157600080fd5b5061034a6116c9565b60405161035791906118fd565b60405180910390f35b34801561036c57600080fd5b506103756116cf565b60405161038291906118fd565b60405180910390f35b34801561039757600080fd5b506103b260048036038101906103ad91906118c1565b6116d5565b6040516103bf91906118fd565b60405180910390f35b3480156103d457600080fd5b506103dd6116ed565b6040516103ea91906118fd565b60405180910390f35b6009602052816000526040600020818154811061040f57600080fd5b906000526020600020016000915091509054906101000a900473ffffffffffffffffffffffffffffffffffffffff1681565b60086020528060005260406000206000915090505481565b60035481565b6007818154811061046f57600080fd5b9060005260206000209060209182820401919006915054906101000a900460ff1681565b60015481565b6000600660009054906101000a900460ff166104ea576040517f08c379a00000000000000000000000000000000000000000000000000000000081526004016104e190611a7e565b60405180910390fd5b6000600a60003373ffffffffffffffffffffffffffffffffffffffff1673ffffffffffffffffffffffffffffffffffffffff168152602001908152602001600020541161056c576040517f08c379a000000000000000000000000000000000000000000000000000000000815260040161056390611aea565b60405180910390fd5b60006105796005546116f3565b905060006009600083815260200190815260200160002090506000805b828054905081101561062e573373ffffffffffffffffffffffffffffffffffffffff168382815481106105cc576105cb611b0a565b5b9060005260206000200160009054906101000a900473ffffffffffffffffffffffffffffffffffffffff1673ffffffffffffffffffffffffffffffffffffffff160361061b576001915061062e565b808061062690611b68565b915050610596565b508061064057600093505050506107c5565b6000600860003373ffffffffffffffffffffffffffffffffffffffff1673ffffffffffffffffffffffffffffffffffffffff16815260200190815260200160002054111561069457600093505050506107c5565b6000805b838054905081101561074157600a60008583815481106106bb576106ba611b0a565b5b9060005260206000200160009054906101000a900473ffffffffffffffffffffffffffffffffffffffff1673ffffffffffffffffffffffffffffffffffffffff1673ffffffffffffffffffffffffffffffffffffffff168152602001908152602001600020548261072c9190611bb0565b9150808061073990611b68565b915050610698565b50600081600a60003373ffffffffffffffffffffffffffffffffffffffff1673ffffffffffffffffffffffffffffffffffffffff168152602001908152602001600020546003546107929190611be4565b61079c9190611c55565b905060006064605f836107af9190611be4565b6107b99190611c55565b90508096505050505050505b90565b6000806000806000806000806107dc611768565b905080600154600254600354600454600554600660009054906101000a900460ff1697509750975097509750975097505090919293949596565b600154421061085a576040517f08c379a000000000000000000000000000000000000000000000000000000000815260040161085190611cd2565b60405180910390fd5b6000600a60003373ffffffffffffffffffffffffffffffffffffffff1673ffffffffffffffffffffffffffffffffffffffff16815260200190815260200160002054146108dc576040517f08c379a00000000000000000000000000000000000000000000000000000000081526004016108d390611d3e565b60405180910390fd5b6007805490508110610923576040517f08c379a000000000000000000000000000000000000000000000000000000000815260040161091a90611daa565b60405180910390fd5b60096000828152602001908152602001600020339080600181540180825580915050600190039060005260206000200160009091909190916101000a81548173ffffffffffffffffffffffffffffffffffffffff021916908373ffffffffffffffffffffffffffffffffffffffff16021790555034600360008282546109a99190611bb0565b9250508190555034600a60003373ffffffffffffffffffffffffffffffffffffffff1673ffffffffffffffffffffffffffffffffffffffff16815260200190815260200160002081905550803373ffffffffffffffffffffffffffffffffffffffff167fca85514906935a0d94240ba350c89bcedc6a87fdaec80c1c2d28ef1853e5258760405160405180910390a350565b60008054906101000a900473ffffffffffffffffffffffffffffffffffffffff1673ffffffffffffffffffffffffffffffffffffffff163373ffffffffffffffffffffffffffffffffffffffff1614610ac9576040517f08c379a0000000000000000000000000000000000000000000000000000000008152600401610ac090611e3c565b60405180910390fd5b600154421015610b0e576040517f08c379a0000000000000000000000000000000000000000000000000000000008152600401610b0590611ece565b60405180910390fd5b600660009054906101000a900460ff1615610b5e576040517f08c379a0000000000000000000000000000000000000000000000000000000008152600401610b5590611f3a565b60405180910390fd5b6007805490508110610ba5576040517f08c379a0000000000000000000000000000000000000000000000000000000008152600401610b9c90611daa565b60405180910390fd5b600254421015610bea576040517f08c379a0000000000000000000000000000000000000000000000000000000008152600401610be190611fa6565b60405180910390fd5b60078181548110610bfe57610bfd611b0a565b5b90600052602060002090602091828204019190069054906101000a900460ff1660ff1660058190555060096000828152602001908152602001600020805490506004819055506001600660006101000a81548160ff021916908315150217905550803373ffffffffffffffffffffffffffffffffffffffff167f47a543cf29ab2746574872415dc31557320e0301b879a8cd0083bb052836da3d60405160405180910390a350565b6001544210610cea576040517f08c379a0000000000000000000000000000000000000000000000000000000008152600401610ce190611cd2565b60405180910390fd5b6000600a60003373ffffffffffffffffffffffffffffffffffffffff1673ffffffffffffffffffffffffffffffffffffffff1681526020019081526020016000205411610d6c576040517f08c379a0000000000000000000000000000000000000000000000000000000008152600401610d6390612012565b60405180910390fd5b6000610db6600a60003373ffffffffffffffffffffffffffffffffffffffff1673ffffffffffffffffffffffffffffffffffffffff168152602001908152602001600020546116f3565b90506000600a60003373ffffffffffffffffffffffffffffffffffffffff1673ffffffffffffffffffffffffffffffffffffffff1681526020019081526020016000205490508060036000828254610e0e9190612032565b925050819055506000600a60003373ffffffffffffffffffffffffffffffffffffffff1673ffffffffffffffffffffffffffffffffffffffff16815260200190815260200160002081905550600060096000848152602001908152602001600020905060005b8180549050811015610ff7573373ffffffffffffffffffffffffffffffffffffffff16828281548110610eaa57610ea9611b0a565b5b9060005260206000200160009054906101000a900473ffffffffffffffffffffffffffffffffffffffff1673ffffffffffffffffffffffffffffffffffffffff1603610fe4578160018380549050610f029190612032565b81548110610f1357610f12611b0a565b5b9060005260206000200160009054906101000a900473ffffffffffffffffffffffffffffffffffffffff16828281548110610f5157610f50611b0a565b5b9060005260206000200160006101000a81548173ffffffffffffffffffffffffffffffffffffffff021916908373ffffffffffffffffffffffffffffffffffffffff16021790555081805480610faa57610fa9612066565b5b6001900381819060005260206000200160006101000a81549073ffffffffffffffffffffffffffffffffffffffff02191690559055610ff7565b8080610fef90611b68565b915050610e74565b5060003373ffffffffffffffffffffffffffffffffffffffff168360405161101e906120c6565b60006040518083038185875af1925050503d806000811461105b576040519150601f19603f3d011682016040523d82523d6000602084013e611060565b606091505b50509050806110a4576040517f08c379a000000000000000000000000000000000000000000000000000000000815260040161109b90612127565b60405180910390fd5b3373ffffffffffffffffffffffffffffffffffffffff167f62195ca73f1140644b581e6223783e511ee857b32473c528caf48b180a79f7f660405160405180910390a250505050565b600660009054906101000a900460ff1681565b60008054906101000a900473ffffffffffffffffffffffffffffffffffffffff1681565b600660009054906101000a900460ff16611173576040517f08c379a000000000000000000000000000000000000000000000000000000000815260040161116a90611a7e565b60405180910390fd5b6000600a60003373ffffffffffffffffffffffffffffffffffffffff1673ffffffffffffffffffffffffffffffffffffffff16815260200190815260200160002054116111f5576040517f08c379a00000000000000000000000000000000000000000000000000000000081526004016111ec90612193565b60405180910390fd5b6000600860003373ffffffffffffffffffffffffffffffffffffffff1673ffffffffffffffffffffffffffffffffffffffff1681526020019081526020016000205414611277576040517f08c379a000000000000000000000000000000000000000000000000000000000815260040161126e90612225565b60405180910390fd5b60006112846005546116f3565b905060006009600083815260200190815260200160002090506000805b8280549050811015611339573373ffffffffffffffffffffffffffffffffffffffff168382815481106112d7576112d6611b0a565b5b9060005260206000200160009054906101000a900473ffffffffffffffffffffffffffffffffffffffff1673ffffffffffffffffffffffffffffffffffffffff16036113265760019150611339565b808061133190611b68565b9150506112a1565b508061137a576040517f08c379a000000000000000000000000000000000000000000000000000000000815260040161137190612291565b60405180910390fd5b6000805b838054905081101561142757600a60008583815481106113a1576113a0611b0a565b5b9060005260206000200160009054906101000a900473ffffffffffffffffffffffffffffffffffffffff1673ffffffffffffffffffffffffffffffffffffffff1673ffffffffffffffffffffffffffffffffffffffff16815260200190815260200160002054826114129190611bb0565b9150808061141f90611b68565b91505061137e565b50600081600a60003373ffffffffffffffffffffffffffffffffffffffff1673ffffffffffffffffffffffffffffffffffffffff168152602001908152602001600020546003546114789190611be4565b6114829190611c55565b905060006064605f836114959190611be4565b61149f9190611c55565b9050600060646005846114b29190611be4565b6114bc9190611c55565b905081600860003373ffffffffffffffffffffffffffffffffffffffff1673ffffffffffffffffffffffffffffffffffffffff1681526020019081526020016000208190555060003373ffffffffffffffffffffffffffffffffffffffff1683604051611528906120c6565b60006040518083038185875af1925050503d8060008114611565576040519150601f19603f3d011682016040523d82523d6000602084013e61156a565b606091505b50509050806115ae576040517f08c379a00000000000000000000000000000000000000000000000000000000081526004016115a5906122fd565b60405180910390fd5b60008060009054906101000a900473ffffffffffffffffffffffffffffffffffffffff1673ffffffffffffffffffffffffffffffffffffffff16836040516115f5906120c6565b60006040518083038185875af1925050503d8060008114611632576040519150601f19603f3d011682016040523d82523d6000602084013e611637565b606091505b505090508061167b576040517f08c379a000000000000000000000000000000000000000000000000000000000815260040161167290612369565b60405180910390fd5b3373ffffffffffffffffffffffffffffffffffffffff167fd49009da908ceeb232ca495f9ecfda1d5a5ee0f01570ee3dcb887cd3ae83ad1060405160405180910390a2505050505050505050565b60025481565b60045481565b600a6020528060005260406000206000915090505481565b60055481565b60008060005b60078054905081101561175e57836007828154811061171b5761171a611b0a565b5b90600052602060002090602091828204019190069054906101000a900460ff1660ff160361174b5780915061175e565b808061175690611b68565b9150506116f9565b5080915050919050565b6000806000905060005b6007805490508110156117b6576009600082815260200190815260200160002080549050826117a19190611bb0565b915080806117ae90611b68565b915050611772565b508091505090565b600080fd5b6000819050919050565b6117d6816117c3565b81146117e157600080fd5b50565b6000813590506117f3816117cd565b92915050565b600080604083850312156118105761180f6117be565b5b600061181e858286016117e4565b925050602061182f858286016117e4565b9150509250929050565b600073ffffffffffffffffffffffffffffffffffffffff82169050919050565b600061186482611839565b9050919050565b61187481611859565b82525050565b600060208201905061188f600083018461186b565b92915050565b61189e81611859565b81146118a957600080fd5b50565b6000813590506118bb81611895565b92915050565b6000602082840312156118d7576118d66117be565b5b60006118e5848285016118ac565b91505092915050565b6118f7816117c3565b82525050565b600060208201905061191260008301846118ee565b92915050565b60006020828403121561192e5761192d6117be565b5b600061193c848285016117e4565b91505092915050565b600060ff82169050919050565b61195b81611945565b82525050565b60006020820190506119766000830184611952565b92915050565b60008115159050919050565b6119918161197c565b82525050565b600060e0820190506119ac600083018a6118ee565b6119b960208301896118ee565b6119c660408301886118ee565b6119d360608301876118ee565b6119e060808301866118ee565b6119ed60a08301856118ee565b6119fa60c0830184611988565b98975050505050505050565b6000602082019050611a1b6000830184611988565b92915050565b600082825260208201905092915050565b7f52617465206e6f742072657665616c6564207965742e00000000000000000000600082015250565b6000611a68601683611a21565b9150611a7382611a32565b602082019050919050565b60006020820190508181036000830152611a9781611a5b565b9050919050565b7f5573657220646964206e6f742070617274696369706174652e00000000000000600082015250565b6000611ad4601983611a21565b9150611adf82611a9e565b602082019050919050565b60006020820190508181036000830152611b0381611ac7565b9050919050565b7f4e487b7100000000000000000000000000000000000000000000000000000000600052603260045260246000fd5b7f4e487b7100000000000000000000000000000000000000000000000000000000600052601160045260246000fd5b6000611b73826117c3565b91507fffffffffffffffffffffffffffffffffffffffffffffffffffffffffffffffff8203611ba557611ba4611b39565b5b600182019050919050565b6000611bbb826117c3565b9150611bc6836117c3565b9250828201905080821115611bde57611bdd611b39565b5b92915050565b6000611bef826117c3565b9150611bfa836117c3565b9250828202611c08816117c3565b91508282048414831517611c1f57611c1e611b39565b5b5092915050565b7f4e487b7100000000000000000000000000000000000000000000000000000000600052601260045260246000fd5b6000611c60826117c3565b9150611c6b836117c3565b925082611c7b57611c7a611c26565b5b828204905092915050565b7f43616e6e6f74207072656469637420616674657220646561646c696e652e0000600082015250565b6000611cbc601e83611a21565b9150611cc782611c86565b602082019050919050565b60006020820190508181036000830152611ceb81611caf565b9050919050565b7f596f75206861766520616c7265616479207072656469637465642e0000000000600082015250565b6000611d28601b83611a21565b9150611d3382611cf2565b602082019050919050565b60006020820190508181036000830152611d5781611d1b565b9050919050565b7f496e76616c6964207261746520696e6465782e00000000000000000000000000600082015250565b6000611d94601383611a21565b9150611d9f82611d5e565b602082019050919050565b60006020820190508181036000830152611dc381611d87565b9050919050565b7f4f6e6c79206f776e65722063616e2063616c6c20746869732066756e6374696f60008201527f6e2e000000000000000000000000000000000000000000000000000000000000602082015250565b6000611e26602283611a21565b9150611e3182611dca565b604082019050919050565b60006020820190508181036000830152611e5581611e19565b9050919050565b7f43616e6e6f742072657665616c2072617465206265666f726520646561646c6960008201527f6e652e0000000000000000000000000000000000000000000000000000000000602082015250565b6000611eb8602383611a21565b9150611ec382611e5c565b604082019050919050565b60006020820190508181036000830152611ee781611eab565b9050919050565b7f526174652068617320616c7265616479206265656e2072657665616c65642e00600082015250565b6000611f24601f83611a21565b9150611f2f82611eee565b602082019050919050565b60006020820190508181036000830152611f5381611f17565b9050919050565b7f43616e6e6f742072657665616c2072617465207965742e000000000000000000600082015250565b6000611f90601783611a21565b9150611f9b82611f5a565b602082019050919050565b60006020820190508181036000830152611fbf81611f83565b9050919050565b7f596f752068617665206e6f74206d61646520612070726564696374696f6e2e00600082015250565b6000611ffc601f83611a21565b915061200782611fc6565b602082019050919050565b6000602082019050818103600083015261202b81611fef565b9050919050565b600061203d826117c3565b9150612048836117c3565b92508282039050818111156120605761205f611b39565b5b92915050565b7f4e487b7100000000000000000000000000000000000000000000000000000000600052603160045260246000fd5b600081905092915050565b50565b60006120b0600083612095565b91506120bb826120a0565b600082019050919050565b60006120d1826120a3565b9150819050919050565b7f526566756e64206661696c65642e000000000000000000000000000000000000600082015250565b6000612111600e83611a21565b915061211c826120db565b602082019050919050565b6000602082019050818103600083015261214081612104565b9050919050565b7f596f7520646964206e6f742070617274696369706174652e0000000000000000600082015250565b600061217d601883611a21565b915061218882612147565b602082019050919050565b600060208201905081810360008301526121ac81612170565b9050919050565b7f596f75206861766520616c726561647920636c61696d656420796f757220726560008201527f776172642e000000000000000000000000000000000000000000000000000000602082015250565b600061220f602583611a21565b915061221a826121b3565b604082019050919050565b6000602082019050818103600083015261223e81612202565b9050919050565b7f596f7520646964206e6f742077696e2e00000000000000000000000000000000600082015250565b600061227b601083611a21565b915061228682612245565b602082019050919050565b600060208201905081810360008301526122aa8161226e565b9050919050565b7f5472616e73666572206661696c65642e00000000000000000000000000000000600082015250565b60006122e7601083611a21565b91506122f2826122b1565b602082019050919050565b60006020820190508181036000830152612316816122da565b9050919050565b7f5472616e73666572206f776e6572206661696c65642e00000000000000000000600082015250565b6000612353601683611a21565b915061235e8261231d565b602082019050919050565b6000602082019050818103600083015261238281612346565b905091905056fea26469706673582212205e44a59eb36bda108064f311a0c284342cb92a04027eac877a708a5e73ccf30e64736f6c63430008130033",
  "immutableReferences": {},
  "source": "// SPDX-License-Identifier:MIT\r\npragma solidity 0.8.19;\r\n\r\ncontract InterestRatePrediction {\r\n    // Contract administrator address\r\n    address public owner;\r\n    // Bets Deadline Timestamp\r\n    uint256 public deadline;\r\n    // Public interest rate hike time stamp\r\n    uint256 public revealRateDate;\r\n    // total bet amount\r\n    uint256 public totalAmount;\r\n    // number of winners\r\n    uint256 public winnerCount;\r\n    // Actual interest rate increase\r\n    uint256 public actualRate;\r\n    // Whether the interest rate hike rate has been disclosed\r\n    bool public rateRevealed;\r\n    // Available rate hike options\r\n    uint8[] public rateOptions = [0, 25, 50];\r\n    \r\n    // Mapping relationship between user address and reward amount\r\n    mapping(address => uint256) public rewards;\r\n    // The mapping relationship between interest rate increase rate options and forecast users\r\n    mapping(uint256 => address[]) public predictions;\r\n    // Mapping relationship between user address and bet amount\r\n    mapping(address => uint256) public betAmounts;\r\n\r\n    // Modifiers only called by contract administrators\r\n    modifier onlyOwner() {\r\n        require(msg.sender == owner, \"Only owner can call this function.\");\r\n        _;\r\n    }\r\n\r\n    // Modifiers that restrict operations before the deadline\r\n    modifier beforeDeadline() {\r\n        require(block.timestamp < deadline, \"Cannot predict after deadline.\");\r\n        _;\r\n    }\r\n\r\n    // Modifier to restrict operations after the deadline\r\n    modifier afterDeadline() {\r\n        require(block.timestamp >= deadline, \"Cannot reveal rate before deadline.\");\r\n        _;\r\n    }\r\n\r\n    // Modifier to restrict operations when the hike rate is undisclosed\r\n    modifier rateNotRevealed() {\r\n        require(!rateRevealed, \"Rate has already been revealed.\");\r\n        _;\r\n    }\r\n\r\n    // contract constructor, pass in the deadline and the date of the public interest rate increase\r\n    constructor(uint256 _deadline, uint256 _revealRateDate) {\r\n        owner = msg.sender;\r\n        deadline = _deadline;\r\n        revealRateDate = _revealRateDate;\r\n    }\r\n\r\n    // event\r\n    event eventPredict(address indexed, uint256 indexed rateIndex);\r\n    event eventCancelPrediction(address indexed);\r\n    event eventRevealRate(address indexed, uint256 indexed rateIndex);\r\n    event eventClaimReward(address indexed);\r\n\r\n    // Place a bet, pass in the rate hike option index\r\n    function predict(uint256 rateIndex) external payable beforeDeadline {\r\n        // Requires that the user has not participated in the prediction\r\n        require(betAmounts[msg.sender] == 0, \"You have already predicted.\");\r\n        // Requires that the rate hike option index is valid\r\n        require(rateIndex < rateOptions.length, \"Invalid rate index.\");\r\n\r\n        // record the user's prediction\r\n        predictions[rateIndex].push(msg.sender);\r\n        // Cumulative total bet amount\r\n        totalAmount += msg.value;\r\n        // mark the user's bet amount\r\n        betAmounts[msg.sender] = msg.value;\r\n\r\n        emit eventPredict(msg.sender, rateIndex);\r\n    }\r\n\r\n    // cancel the bet\r\n    function cancelPrediction() external beforeDeadline {\r\n        require(betAmounts[msg.sender] > 0, \"You have not made a prediction.\");\r\n\r\n        uint256 rateIndex = _findRateIndex(betAmounts[msg.sender]);\r\n        \r\n        uint256 refundAmount = betAmounts[msg.sender];\r\n        totalAmount -= refundAmount;\r\n        betAmounts[msg.sender] = 0;\r\n\r\n        // remove the user from the predictions array\r\n        address[] storage userPredictions = predictions[rateIndex];\r\n        for (uint256 i = 0; i < userPredictions.length; i++) {\r\n            if (userPredictions[i] == msg.sender) {\r\n                userPredictions[i] = userPredictions[userPredictions.length - 1];\r\n                userPredictions.pop();\r\n                break;\r\n            }\r\n        }\r\n\r\n        (bool success, ) = msg.sender.call{value: refundAmount}(\"\");\r\n        require(success, \"Refund failed.\");\r\n\r\n        emit eventCancelPrediction(msg.sender);\r\n    }\r\n\r\n    // The contract administrator discloses the actual rate hike rate, and passes in the rate rate option index\r\n    function revealRate(uint256 rateIndex) external onlyOwner afterDeadline rateNotRevealed {\r\n        // Requires that the rate hike option index is valid\r\n        require(rateIndex < rateOptions.length, \"Invalid rate index.\");\r\n        // It is required that the current time is greater than or equal to the date of the public interest rate hike\r\n        require(block.timestamp >= revealRateDate, \"Cannot reveal rate yet.\");\r\n\r\n        // Set the actual interest rate increase\r\n        actualRate = rateOptions[rateIndex];\r\n        // Count the number of winners\r\n        winnerCount = predictions[rateIndex].length;\r\n        // mark the interest rate hike rate has been published\r\n        rateRevealed = true;\r\n\r\n        emit eventRevealRate(msg.sender, rateIndex);\r\n    }\r\n\r\n    // Query how many rewards can be received\r\n    function getReward() public view returns (uint256) {\r\n        require(rateRevealed, \"Rate not revealed yet.\");\r\n        require(betAmounts[msg.sender] > 0, \"User did not participate.\");\r\n\r\n        uint256 rateIndex = _findRateIndex(actualRate);\r\n        address[] storage winners = predictions[rateIndex];\r\n\r\n        bool isWinner = false;\r\n        for (uint256 i = 0; i < winners.length; i++) {\r\n            if (winners[i] == msg.sender) {\r\n                isWinner = true;\r\n                break;\r\n            }\r\n        }\r\n\r\n        // If the user is not the winner, return 0\r\n        if (!isWinner) {\r\n            return 0;\r\n        }\r\n\r\n        // If the user has received it, return 0\r\n        if (rewards[msg.sender] > 0) {\r\n            return 0;\r\n        }\r\n\r\n        // Calculate the total bet amount of the winner\r\n        uint256 totalWinnerBetAmount = 0;\r\n        for (uint256 i = 0; i < winners.length; i++) {\r\n            totalWinnerBetAmount += betAmounts[winners[i]];\r\n        }\r\n\r\n        // reward = bet amount * (user bet amount / winner's total bet amount)\r\n        uint256 rewardAmount = totalAmount * betAmounts[msg.sender] / totalWinnerBetAmount;\r\n        // user gets 95%\r\n        uint256 userAmount = rewardAmount * 95 / 100;\r\n\r\n        return userAmount;\r\n    }\r\n\r\n    // Receive award\r\n    function claimReward() external {\r\n        // request rate increase has been made public\r\n        require(rateRevealed, \"Rate not revealed yet.\");\r\n        // Requires that the user has participated in predictions\r\n        require(betAmounts[msg.sender] > 0, \"You did not participate.\");\r\n        // Require the user not to have received the reward\r\n        require(rewards[msg.sender] == 0, \"You have already claimed your reward.\");\r\n\r\n        // Find the index of the actual rate hike in the options\r\n        uint256 rateIndex = _findRateIndex(actualRate);\r\n        // get list of winners\r\n        address[] storage winners = predictions[rateIndex];\r\n\r\n        // Check if the user is in the winner list\r\n        bool isWinner = false;\r\n        for (uint256 i = 0; i < winners.length; i++) {\r\n            if (winners[i] == msg.sender) {\r\n                isWinner = true;\r\n                break;\r\n            }\r\n        }\r\n\r\n        // Require user to be the winner\r\n        require(isWinner, \"You did not win.\");\r\n\r\n        // Calculate the total bet amount of the winner\r\n        uint256 totalWinnerBetAmount = 0;\r\n        for (uint256 i = 0; i < winners.length; i++) {\r\n            totalWinnerBetAmount += betAmounts[winners[i]];\r\n        }\r\n\r\n        // reward = bet amount * (user bet amount / winner's total bet amount)\r\n        uint256 rewardAmount = totalAmount * betAmounts[msg.sender] / totalWinnerBetAmount;\r\n        // user gets 95% (add precision factor 1e18 to prevent rounding down)\r\n        uint256 userAmount = rewardAmount * 95 / 100;\r\n        // The administrator charges a 5% handling fee\r\n        uint256 ownerAmount = rewardAmount * 5 / 100;\r\n\r\n        // record user rewards\r\n        rewards[msg.sender] = userAmount;\r\n\r\n        // Transfer the reward to the user, and check whether the transfer is successful\r\n        (bool success, ) = msg.sender.call{value: userAmount}(\"\");\r\n        require(success, \"Transfer failed.\");\r\n\r\n        // 5% of the handling fee is transferred to the administrator, and at the same time check whether the transfer is successful\r\n        (bool success2, ) = payable(owner).call{value: ownerAmount}(\"\");\r\n        require(success2, \"Transfer owner failed.\");\r\n\r\n        emit eventClaimReward(msg.sender);\r\n    }\r\n\r\n    // Find the index of the interest rate hike rate in the options, private function\r\n    function _findRateIndex(uint256 rate) private view returns (uint256) {\r\n        uint256 index;\r\n        for (uint256 i = 0; i < rateOptions.length; i++) {\r\n            if (rateOptions[i] == rate) {\r\n                index = i;\r\n                break;\r\n            }\r\n        }\r\n        return index;\r\n    }\r\n\r\n    // Count the number of bettors, private function\r\n    function _getTotalParticipants() private view returns (uint256) {\r\n        uint256 totalParticipants = 0;\r\n        for (uint256 i = 0; i < rateOptions.length; i++) {\r\n            totalParticipants += predictions[i].length;\r\n        }\r\n        return totalParticipants;\r\n    }\r\n\r\n    // Get aggregate statistics\r\n    function getRollupInfo() public view returns (\r\n        uint256,\r\n        uint256,\r\n        uint256,\r\n        uint256,\r\n        uint256,\r\n        uint256,\r\n        bool\r\n    ) {\r\n        // number of bettors\r\n        uint256 totalParticipants = _getTotalParticipants();\r\n        return (\r\n            // number of bettors\r\n            totalParticipants,\r\n            // bet deadline\r\n            deadline,\r\n            // Federal Reserve public time\r\n            revealRateDate,\r\n            // total bet amount\r\n            totalAmount,\r\n            /// number of winners\r\n            winnerCount,\r\n            // Actual interest rate increase\r\n            actualRate,\r\n            // Whether the interest rate increase has been made public\r\n            rateRevealed\r\n        );\r\n    }\r\n}",
  "sourcePath": "C:\\Users\\98152\\Desktop\\InterestRatePredictionv3\\InterestRatePredictionv2\\contracts\\InterestRatePrediction.sol",
  "compiler": {
    "name": "solc",
    "version": "0.8.19+commit.7dd6d404.Emscripten.clang"
  },
  "schemaVersion": "3.4.13",
  "updatedAt": "2023-05-18T22:00:22.970Z",
  "networkType": "ethereum",
  "devdoc": {
    "kind": "dev",
    "methods": {},
    "version": 1
  },
  "userdoc": {
    "kind": "user",
    "methods": {},
    "version": 1
  }
}